:020000040800F2
:10000000000900200101000811190008250E000850
:100010000D190008C30800088D2600080000000024
:10002000000000000000000000000000E51C0008C7
:10003000B1090008000000008D1B0008111F000816
:100040001B0100081B0100081B0100081B01000820
:100050001B0100081B0100081B0100081B01000810
:100060001B0100081B0100081B0100081B01000800
:100070001B0100081B0100081B0100081B010008F0
:100080001B0100081B0100081B0100081B010008E0
:100090001B0100081B0100081B0100081B010008D0
:1000A0001B0100081B0100081B0100081B010008C0
:1000B000891F00081B010008A11F00081B01000880
:1000C0001B0100081B0100081B0100081B010008A0
:1000D0001B0100082D230008B5230008F5230008A4
:1000E0001B0100081B0100081B010008DFF80CD0F1
:1000F00000F072FB00480047652B00080009002053
:100100000648804706480047FEE7FEE7FEE7FEE7B1
:10011000FEE7FEE7FEE7FEE7FEE7FEE7291F000831
:10012000ED000008F0B480EA0102D40F4200B2EB07
:10013000410F02D20246084611464A0042D0C30D82
:10014000DDB2C1F3C752AD1A202D35DAC1F3160165
:1001500041F4000204B15242C5F1200602FA06F150
:100160002A411044B3EBD05F23D0C4B1012DA0EBE2
:10017000C35009DCF0BC4FF0004202EAC352DBB2CC
:1001800000F5000000F0F5B9400000F1807000EBD0
:10019000C350A0F1807040EAD170490009E04908DD
:1001A00041EAC071A0EBC35000F50000400800EB2D
:1001B000C350F0BC00F0D4B96142012202EB41010E
:1001C000001BF6E7F0BC704781F00041AAE780F021
:1001D0000040A7E780EA010210B502F000434000AA
:1001E00022D04A001FD0010E01EB1261C0F356006D
:1001F000C2F3560240F4000042F40002A0FB0220C9
:1002000000047F39140400D0401C50EA124001D48D
:100210004000491EC2B20C0604EBD010401C40083E
:10022000802A02D003E0002010BD20F00100002948
:1002300000DA0020184310BD30B480EA010202F059
:10024000004530F0004221F0004013D090B1C30DC2
:10025000D40DC2F31601C0F31600E41A41F40001F4
:1002600040F400027D34914201D3641C00E0490057
:10027000002C02DA30BC002070474FF4000000234D
:10028000914201D3891A034340084FEA4101F7D153
:1002900051B1914202D14FF0004105E002D24FF03E
:1002A000010101E06FF0010103EBC450284430BCB0
:1002B00000F056B92DE9FE4F81EA030404F0004432
:1002C00021F0004100944FF0000B23F0004350EA6E
:1002D00001045ED052EA03045BD0C3F30A54C1F3B5
:1002E0000A552C44A4F2F3340194A0FB0254C1F348
:1002F000130141F48011C3F3130343F4801301FB92
:10030000024400FB034E840A970A44EA815447EAF8
:100310008357A4FB076802958D0A05FB07854FEA02
:10032000932C04FB0C542705029D4FEA065847EA1C
:100330001637B5EB08056EEB070C870E920E47EAF1
:10034000811742EA8312A7FB0201B6EB0B0164EBB3
:1003500000042B0D43EA0C335E1844EB1C50DA46C4
:100360005146E7FB0201C5F313044FEA0B3343EA9E
:1003700014534FEA0432019C43EA0603A4F10C042F
:100380000294009CCDE900B400F030F903B0BDE860
:10039000F08F00200146F9E72DE9F04D81EA0304D2
:1003A00004F0004B21F0004514464FF0000A23F002
:1003B000004150EA050220D054EA01021DD0C5F3E5
:1003C0000A570246C5F31303C1F31300C1F30A56DB
:1003D00040F4801543F48013A7EB0608101BD646A3
:1003E00008F2FD3873EB050002D308F1010801E0C3
:1003F00092185B41B8F1000F03DA00200146BDE816
:10040000F08D00204FF48011064684460EE0171B45
:1004100073EB050705D3121B63EB050306434CEA98
:10042000010C49084FEA300092185B4150EA01077D
:10043000EDD152EA030012D082EA040083EA0501FA
:10044000084305D0101BAB4106D20122002306E071
:1004500000224FF0004302E06FF0010253101AEB4C
:1004600006004CEB085110EB0A0041EB0B01BDE814
:10047000F04D00F0ACB8C10F80EAE0700844CA0744
:100480009623002100F075B800F0004220F00040F3
:10049000C10DC0F3160040F400007F2901DA0020EE
:1004A0007047962903DCC1F19601C84001E09639F6
:1004B0008840002AF4D04042704700F0004230F0FB
:1004C00000400AD0C10D01F56071C0F3160042EA88
:1004D0000151C20840071143704700200146704790
:1004E00001F0004330B421F0004150EA010206D08F
:1004F0000A0DA2F56072C1F31301002A02DC30BCC0
:1005000000207047440F44EAC104C100E01830BC29
:1005100000EBC25000F024B8002801DBC0F100401D
:10052000002901DBC1F1004181427047002801DB55
:10053000C0F10040002901DBC1F100418842704751
:10054000202A04DB203A21FA02F00021704721FA28
:1005500002F3D040C2F1200291400843194670478F
:100560000029A8BF7047401C490008BF20F00100C7
:10057000704710B4B0FA80FC00FA0CF050EA0104A5
:1005800004BF10BC704749B1CCF1200421FA04F437
:1005900011FA0CF118BF012121430843A3EB0C0110
:1005A000CB1D4FEA00614FEA102042BF002010BC73
:1005B000704700EBC35010440029A4BF10BC704723
:1005C000401C490008BF20F0010010BC704710B566
:1005D000141E73F1000408DA401C41F10001921866
:1005E0005B411A4301D120F0010010BD2DE9F04D0F
:1005F00092469B4611B1B1FA81F202E0B0FA80F264
:100600002032904600F0FAF804460F4640EA0A000D
:1006100041EA0B0153465A46084313D0114653EAA8
:10062000010019D0C8F140025046FFF789FF054686
:100630000E4650465946424600F0E0F8084305D0C1
:10064000012004E020463946BDE8F08D0020054336
:1006500046EAE0762C4337430A986305E40AA0EBA8
:1006600008000022FD0A44EA47540A3002D500205F
:100670000146E9E7010510196941DDE9084500195E
:100680006941BDE8F04DA2E72DE9FE4F804681EAC1
:100690000300C00F0C46009021F0004123F00045FC
:1006A000B8EB0200A94105D24046214690461C46BF
:1006B0000B46024623F00040104347D0270DC7F3F6
:1006C0000A00C3F30A510290401A019040286BDAE5
:1006D000C3F3130040F4801B0098924620B100231E
:1006E000D2EB030A63EB0B0B01985946C0F14002B1
:1006F000504600F083F806460D4650465946019A8A
:1007000000F08BF810EB08006141002487EA1152D9
:1007100084EAE7731A4340D0009A62B3019A012A2F
:100720004FEA075215DC001B61EB02014FF000425B
:1007300002EA0752CDE90042001C41F58011324621
:100740002B46FFF753FF03B0BDE8F08F404621462C
:10075000F9E7001B61EB0201001C41F58013001852
:100760005B412018A2F5001747EB030140EAD57062
:10077000B6196D4111E06D084FEA360645EAC075BD
:100780004FEA0752001B61EB0201001C41F580118A
:1007900049084FEA30000019514132462B4603B058
:1007A000BDE8F04FFFF713BF00980122400000237F
:1007B000D0EB020263EBE073009821464FEAE0744D
:1007C000B8EB000061EB0401E9E783F000435BE76D
:1007D00081F0004158E70000064C074D06E0E06854
:1007E00040F0010394E8070098471034AC42F6D378
:1007F000FFF780FCC02C0008E02C0008202A04DB56
:10080000203A00FA02F1002070479140C2F1200323
:1008100020FA03F3194390407047202A06DBCB17D8
:10082000203A41FA02F043EAE07306E041FA02F3AB
:10083000D040C2F12002914008431946704770B57C
:1008400021F0004303430CD0C1F30A550024D5EB3B
:10085000040564EB0403D617AD1AB34102DB002094
:10086000014670BD201841EB025170BD70B58C1867
:1008700010F8015B15F0070301D110F8013B2A11B4
:1008800006D110F8012B03E010F8016B01F8016BA1
:100890005B1EF9D12B0705D40023521E0DD401F89D
:1008A000013BFAE710F8013BCB1A921C03E013F866
:1008B000015B01F8015B521EF9D5A142D8D300209B
:1008C00070BD00BFFEE700002DE9FF411E46BDF8E8
:1008D00000006421484300B20090BDF80400484382
:1008E00000B20190BDF80800484300B20290002415
:1008F000AA222146641C2D484254FF222146641C32
:10090000425403222146641C425400222146641CA6
:1009100042549DF800202146641C42549DF8012059
:100920002146641C42549DF804202146641C425414
:100930009DF805202046611CCCB21C490A549DF844
:1009400008202046611CCCB218490A549DF80920A1
:100950002046611CCCB215490A542046611CCCB219
:1009600012490E54201FC87000250027002007E000
:100970000E49095C2944CDB27919CFB2411CC8B2E5
:100980000A49C978091D8142F2DC2046611CCCB2BB
:1009900006490D542046611CCCB204490F5421462F
:1009A000024801F04DFEBDE8FF810000AC010020CF
:1009B000704710B5044603E04FF47A7000F005F874
:1009C000201EA4F10104F7D110BD30B5044600F09B
:1009D00093F8054600BF00F08FF8401BA042FAD301
:1009E00030BD2DE9F04102460025002600200023FD
:1009F0000024002791F803C00CF00F0591F803C004
:100A00000CF0100CBCF1000F03D091F802C04CEABE
:100A1000050591F800C0BCF1000F31D0146800202A
:100A20002BE04FF0010C0CFA00F3B1F800C00CEA17
:100A300003069E4220D183004FF00F0C0CFA03F7FF
:100A4000BC4305FA03FC4CEA040491F803C0BCF172
:100A5000280F06D14FF0010C0CFA00FCC2F814C0AC
:100A60000AE091F803C0BCF1480F05D14FF0010C2A
:100A70000CFA00FCC2F810C0401C0828D1D3146046
:100A8000B1F800C0BCF1FF0F34DD546800202EE047
:100A900000F1080C4FF0010808FA0CF3B1F800C09F
:100AA0000CEA03069E4221D183004FF00F0C0CFA92
:100AB00003F7BC4305FA03FC4CEA040491F803C0B5
:100AC000BCF1280F05D100F1080C08FA0CF8C2F8A7
:100AD000148091F803C0BCF1480F07D100F1080C55
:100AE0004FF0010808FA0CF8C2F81080401C0828E2
:100AF000CED35460BDE8F08100BF0E4A11684FF0BC
:100B0000E02252694FF0E0239B69D21A4FF47A73C6
:100B10005A434FF0E0235B69B2FBF3F201EB410370
:100B2000C3EBC11302EBC300024A12689142E4D145
:100B300070470000340100202DE9F04F8FB04621AE
:100B4000682000F0A1FC83464521682000F09CFC51
:100B50000BEB00200990FFF78EFC0C9044216820DD
:100B600000F092FC83464321682000F08DFC0BEBE3
:100B700000200990FFF77FFC0B904821682000F0CF
:100B800083FC83464721682000F07EFC0BEB0020AD
:100B90000990FFF770FC0A909B490C98FFF7C6FC80
:100BA0000FD24FF08E410C98FFF7B6FC03D14FF0F7
:100BB00047400C9005E04FF08F410C98FFF704FB85
:100BC0000C9091490B98FFF7B1FC0FD24FF08E417A
:100BD0000B98FFF7A1FC03D14FF047400B9005E0C5
:100BE0004FF08F410B98FFF7EFFA0B9086490A9868
:100BF000FFF79CFC0FD24FF08E410A98FFF78CFC58
:100C000003D14FF047400A9005E04FF08F410A981A
:100C1000FFF7DAFA0A900C98FFF74FFC4FF06632B4
:100C20007A4BCDE90601FFF7B7FBCDE90801FFF7E5
:100C300057FC06460B98FFF740FC4FF06632734BAB
:100C4000CDE90601FFF7A8FBCDE90801FFF748FC55
:100C500007460A98FFF731FC4FF066326B4BCDE93F
:100C60000601FFF799FBCDE90801FFF739FC0D906C
:100C70004021682000F008FC83463F21682000F0F6
:100C800003FC0BEB00200990FFF7F5FB81463C21AC
:100C9000682000F0F9FB83463B21682000F0F4FB5C
:100CA0000BEB00200990FFF7E6FB80463E21682011
:100CB00000F0EAFB83463D21682000F0E5FB0BEBEA
:100CC00000200990FFF7D7FB82464F495046FFF7B7
:100CD0002DFC0ED24FF08E415046FFF71DFC02D185
:100CE0004FF0474A05E04FF08F415046FFF76CFA4E
:100CF000824645494046FFF719FC0ED24FF08E411F
:100D00004046FFF709FC02D14FF0474805E04FF09D
:100D10008F414046FFF758FA80463B494846FFF767
:100D200005FC0ED24FF08E414846FFF7F5FB02D18D
:100D30004FF0474905E04FF08F414846FFF744FA2E
:100D400081464846FFF7B9FBCDE902014046FFF76F
:100D5000B4FBCDE90001DDE9022301F02FFE002202
:100D60002B4BCDE90401FFF7A5FA2A4A2A4BCDE91E
:100D70000601FFF711FBCDE90801FFF7B1FB0446BF
:100D80004846FFF79AFBCDE902015046FFF795FB75
:100D9000CDE90001DDE9022301F010FE00221C4B29
:100DA000CDE90401FFF786FA1A4A1B4BCDE906018B
:100DB000FFF7F2FACDE90801FFF792FB054686F04E
:100DC000004001460990204600F070F98346FFF785
:100DD0005BFB00B2114908803946284600F024F830
:100DE0008346FFF751FB00B20D4908800123002222
:100DF0000A48B0F900100A48B0F90000FFF764FD96
:100E00000FB0BDE8F08F000000FEFF466666304080
:100E100000806640F1D4C853FB2109402A0000201D
:100E20002800002000BFFEE72DE9F04105460C46F2
:100E30008C4801682046FFF7C7F907468A480168D1
:100E40003846FFF7C7F90646884801683046FFF77D
:100E500069F9864908608648416886480068FFF756
:100E6000B3F90646824881683046FFF7ADF98249FA
:100E700008607F48C06880F0004048607C48C068D7
:100E800080F0004088607D480068C8600868764946
:100E90000968FFF79FF90646754801683046FFF775
:100EA00041F973490860744948686F490968FFF758
:100EB00091F906466E4841683046FFF733F96C49B0
:100EC00048606D49886868490968FFF783F90646F4
:100ED000674881683046FFF725F9654988606649AB
:100EE000C86861490968FFF775F906466048C16836
:100EF0003046FFF717F95E49C8605C48016828462C
:100F0000FFF762F95E4908605E4890F90000FFF75C
:100F1000B2FA0646564801683046FFF75BF95A496F
:100F20000860584890F90000FFF7A5FA06465048B7
:100F300081683046FFF74EF954490860514890F9EE
:100F40000000FFF798FA07464F4801683846FFF758
:100F500041F906464E4801683046FFF7E3F84D492F
:100F600008600846016848480068FFF765F94A4983
:100F700008604848016845480068FFF75DF947493F
:100F8000086041480068464908603E4890F9000002
:100F9000FFF771FA0646364841683046FFF71AF9FE
:100FA000404908603E4801683B480068FFF712F975
:100FB00006462F4801683046FFF709F92C490860BA
:100FC0003848016834480068FFF704F906462848A5
:100FD00041683046FFF7FBF8254948603048016812
:100FE0002E480068FFF7F6F806462148816830462B
:100FF000FFF7EDF81E4988602A4801682748006815
:10100000FFF7E8F806461A48C1683046FFF7DFF8F0
:101010001749C8601A4801681F480068FFF7DAF8E6
:101020000646124801683046FFF77CF80F49086011
:101030001348016819480068FFF7CCF806460948CC
:1010400001683046FFF76EF80649086008460168F7
:101050002046FFF7B9F81449086004480068BDE865
:10106000F08100004C0000204400002030000020EF
:101070007000002038000020100200203C000020FA
:10108000500000204800002054000020580000209C
:10109000400000205C000020600000206400002070
:1010A000680000206C000020340000202DE9F04191
:1010B00005460C468C4801682046FFF785F8074630
:1010C0008A4801683846FFF785F80646884801686F
:1010D0003046FFF727F88649086086484168864809
:1010E0000068FFF771F80646824881683046FFF7CE
:1010F0006BF8824908607F48C06880F00040486013
:101100007C48C06880F0004088607D480068C86006
:10111000086876490968FFF75DF806467548016872
:101120003046FEF7FFFF73490860744948686F490D
:101130000968FFF74FF806466E4841683046FEF7EB
:10114000F1FF6C4948606D49886868490968FFF794
:1011500041F80646674881683046FEF7E3FF654977
:1011600088606649C86861490968FFF733F8064630
:101170006048C1683046FEF7D5FF5E49C8605C48EC
:1011800001682846FFF720F85E4908605E4890F93C
:101190000000FFF770F90646564801683046FFF731
:1011A00019F85A490860584890F90000FFF763F9A8
:1011B0000646504881683046FFF70CF854490860ED
:1011C000514890F90000FFF756F907464F4801686B
:1011D0003846FEF7FFFF06464E4801683046FEF7E8
:1011E000A1FF4D4908600846016848480068FFF7BC
:1011F00023F84A4908604848016845480068FFF7F5
:101200001BF84749086041480068464908603E4865
:1012100090F90000FFF72FF906463648416830463E
:10122000FEF7D8FF404908603E4801683B48006827
:10123000FEF7D0FF06462F4801683046FEF7C7FF8D
:101240002C4908603848016834480068FEF7C2FF3E
:101250000646284841683046FEF7B9FF25494860F0
:10126000304801682E480068FEF7B4FF0646214862
:1012700081683046FEF7ABFF1E4988602A48016846
:1012800027480068FEF7A6FF06461A48C1683046A0
:10129000FEF79DFF1749C8601A4801681F4800689B
:1012A000FEF798FF0646124801683046FEF73AFFFF
:1012B0000F4908601348016819480068FEF78AFF63
:1012C0000646094801683046FEF72CFF06490860CB
:1012D000084601682046FEF777FF14490860044875
:1012E0000068BDE8F0810000A00000209800002008
:1012F00084000020C40000208C0000202002002078
:1013000090000020A40000209C000020A8000020E5
:10131000AC00002094000020B0000020B4000020A9
:10132000B8000020BC000020C00000208800002081
:1013300070477047704710B5FFF7FEFB10BD704750
:1013400070477047704710B5044623460022382185
:10135000682000F057FA10BD10B500F0E1F800F079
:1013600083F8012000F01FF8002000F058F8022058
:1013700000F025F8002000F05BF80020FFF7E3FF05
:10138000002000F069F8032000F02DF8002000F0A4
:1013900020F8022000F056F8002000F037F8012075
:1013A00000F02BF810BD10B50446234607226B2130
:1013B000682000F027FA6420FFF7FBFA10BD38B56B
:1013C0000446032302226B216820009400F03AFABD
:1013D00038BD38B50446022304221C21682000943D
:1013E00000F030FA38BD38B50446022304221B2130
:1013F0006820009400F026FA38BD10B50446234654
:1014000001223721682000F0FDF910BD10B5044617
:10141000234605226A21682000F0F4F910BD10B5BA
:101420000446234606226B21682000F0EBF910BD2C
:1014300038B50446062305226C216820009400F08C
:1014400001FA38BD38B50446032302221A21682068
:10145000009400F0F7F938BD10B504462246192172
:10146000682000F024FA10BD10B505E0054B0122FC
:101470007521682000F091F9024800786828F5D1BC
:1014800010BD00004002002070B505460E46002445
:1014900000F0ECF86906080E00F0B6F8641C00F0E5
:1014A0003DF9304600F0B0F8641C00F037F900F068
:1014B000DDF8012101EB4501C8B200F0A5F8641C7C
:1014C00000F02CF9002000F067F8044600F002F963
:1014D000204670BD10B500200E4908600E48006817
:1014E00020F470200C4908600846006840F4403041
:1014F000086000200949C1F890010120FFF765FA52
:10150000012004490860FFF760FA00200349C1F890
:10151000940110BD940121420008014000002142C5
:101520000848806940F00400064988610648006860
:1015300020F47F00044908600846006840F44C101D
:1015400008607047001002400008014010B50020FC
:101550000E4908600E48006820F470200C490860AD
:101560000846006840F44030086001200949C1F88D
:101570009001FFF72AFA012004490860FFF725FAD5
:1015800000200449C1F8940110BD000094012142DB
:10159000000801400000214270B5054600241748AC
:1015A000006820F47020154908600846006840F47F
:1015B00000200860002616E0002011490860022083
:1015C000FFF703FA01200F49C1F894016006040EE9
:1015D0000B488438006808B1601CC4B20220FFF7D1
:1015E000F4F9701CC6B2082EE6DB15B1FFF772FFE6
:1015F00001E0FFF7ABFF204670BD0000000801408E
:10160000940121420000214270B50446144800684C
:1016100020F47020124908600846006840F4403009
:10162000086000200F490860002516E0E0090D4918
:10163000091F08606006040E0120FFF7C6F90120AB
:101640000949C1F89401FFF7C0F900200549086075
:101650000120FFF7BAF9681CC5B2082DE6DB70BDA2
:1016600000080140940121420000214210B51648B3
:10167000006820F47020144908600846006840F4AF
:10168000403008600120114908601148D0F810016D
:1016900008B9002010BD01200C49091D0860FFF7A2
:1016A00094F900200A49C1F8900108488038006880
:1016B00008B10020EEE70120FFF787F90020034979
:1016C000091D08600120E5E7000801409001214262
:1016D0000000214210B50E48006820F470200C492B
:1016E00008600846006840F440300860002009495E
:1016F00008600949C1F890010120FFF766F901204F
:10170000044908600449C1F89001FFF75EF910BD73
:1017100000080140940121420000214210B500243C
:101720001548006820F470201349086008460068D6
:1017300040F400200860012010490860FFF745F9D7
:1017400001200F49C1F89401FFF73FF90AE0601C3E
:10175000C4B2322C03DDFFF7BDFF002010BD012015
:10176000FFF733F90548803800680028EFD10349B6
:10177000091D08600120F1E70008014090012142A5
:101780000000214270B505460E46144631462846F3
:10179000FFF77AFE2070012070BD2DE9F04105466B
:1017A000884616461F460024FFF760FF6906080EAC
:1017B000FFF72AFFFFF7B2FF4046FFF725FFFFF7CD
:1017C000ADFFFFF753FF012101EB4501C8B2FFF761
:1017D0001BFFFFF7A3FF00BF0DE0701EA04204D067
:1017E0000120FFF7D9FE385503E00020FFF7D4FEB3
:1017F0003855601CC4B2B442EFDBFFF76BFF2046E4
:10180000BDE8F081F8B506460F4614461D466A4607
:1018100039463046FFF7B6FF2DB10120A0409DF8B4
:101820000010084305E00120A0409DF8001021EAC7
:101830000000C0B200909DF800203946304600F00C
:1018400036F8F8BD2DE9F8430746884614461D468C
:10185000089E6A4641463846FFF794FF28B3601C4D
:10186000FF2101FA00F0C4F108012944491EFF22BA
:101870000A41104300F0FF09C5F1080006FA00F024
:10188000C6B2C4F1070006419DF8000000EA090055
:1018900000909DF80000304300909DF800204146E4
:1018A000384600F004F8BDE8F8830020FBE737B5C0
:1018B00004460D4602AB01222946204600F001F8FD
:1018C0003EBD2DE9F04105460E46174698460024D8
:1018D000FFF7CCFE6906080EFFF796FEFFF71EFF26
:1018E0003046FFF791FEFFF719FF00BF07E018F839
:1018F0000400FFF789FEFFF711FF601CC4B2BC4271
:10190000F5DBFFF7E7FE0120BDE8F08100BFFEE751
:101910007047000070B5002100230F22C47804B383
:10192000154C246804F4E064C4F5E064210AC1F1B4
:101930000403CA40447804FA03F184781440214334
:1019400009010E4C0678A155047804F01F05012406
:10195000AC4005786D11AD0005F1E025C5F80041FA
:1019600009E0047804F01F050124AC40044D06781A
:10197000761145F8264070BD0CED00E000E400E073
:1019800080E100E002490143024A11607047000013
:101990000000FA050CED00E070B5044600253E4855
:1019A0003E49097844543D48007858B9AA2C05D1DD
:1019B0003A480078401C394908706CE000203749EB
:1019C000087068E035480078012805D13348007870
:1019D000401C324908705EE03048007802280BD184
:1019E000052C05D12D480078401C2C49087052E088
:1019F00000202A4908704EE02848007803280DD1BD
:101A0000412C01D0422C05D124480078401C2349A8
:101A1000087040E00020214908703CE01F48007831
:101A200004280ED11E4804700078142805DA1B48DB
:101A30000078401C194908702DE0002017490870F3
:101A400029E01648017816480078401D81421DD1D2
:101A5000002005E01049095C2944CDB2411CC8B200
:101A60000F490978491D8842F4DBA5420AD10C4888
:101A70000078801DC1B2084800F01EF80020074918
:101A8000087008E000200549087004E00348007869
:101A9000401C0249087070BD4E0200203101002038
:101AA0003001002000200249088002490870704778
:101AB000280100206202002070B504460D46E0783F
:101AC000412819D160792D490871A1792B484171BC
:101AD000207AE17940EA012001B22848C180A07A49
:101AE000617A40EA012001B224480181E17A8172E1
:101AF0000120224988703DE0E07842283AD160799F
:101B00001E490873E079A17940EA012001B21B481F
:101B1000C181607A217A40EA012001B2174801822E
:101B2000A17A8174207BE17A40EA012001B2134856
:101B30008182A07B617B40EA012001B20F48C18213
:101B4000E17B017602200D4988700D480088401C19
:101B50000B4908800948C0890A490988084400B22D
:101B6000084908800548008A07490988084400B2E6
:101B700005490880FFF796FF70BD00006202002053
:101B80002E0100202A0100202C01002070470000B7
:101B900029B1064AD2690243044BDA6104E0034AE0
:101BA000D2698243014BDA617047000000100240A5
:101BB00029B1064A12690243044B1A6104E0034A40
:101BC00012698243014B1A61704700000010024005
:101BD00029B1064A92690243044B9A6104E0034A20
:101BE00092698243014B9A617047000000100240E5
:101BF00029B1064AD2680243044BDA6004E0034A82
:101C0000D2688243014BDA60704700000010024046
:101C100030B500210022002400232D4D6D6805F011
:101C20000C0121B1042905D0082923D105E0294D53
:101C3000056022E0274D05601FE0254D6D6805F425
:101C40007012234D6D6805F48034022505EB924235
:101C50001CB9214D554305600BE01D4D6D6805F421
:101C600000351DB11C4D5543056002E0194D55432B
:101C7000056002E0174D056000BF00BF144D6D68A0
:101C800005F0F0010909154D6B5C0568DD40456004
:101C90000F4D6D6805F4E061090A104D6B5C4568F5
:101CA000DD4085600A4D6D6805F46051C90A0B4D31
:101CB0006B5C4568DD40C560054D6D6805F44041CD
:101CC000890B074D6B5CC568B5FBF3F5056130BD4D
:101CD0000010024000127A0000093D0014000020AC
:101CE000240000207047000070B5002400BF1EE0F3
:101CF00000F008F9054604EB44000E4901EB8000B2
:101D00008068281A04EB44010A4A02EB8101C98861
:101D100088420AD304EB4400114601EB8000856041
:101D200004EB440152F821008047601CC4B2082C27
:101D3000DED370BD4C010020002000BF1FE000EB8F
:101D40004001104A02EB810189884FF47A7292FBBC
:101D5000F1F100EB40020B4B03EB8202D18000EB70
:101D600040011A4602EB8101C988012905DA0121E7
:101D700000EB400203EB8202D180411CC8B208286C
:101D8000DDD370474C01002010B500F001F810BD04
:101D90000CB50020019000903348006840F480307A
:101DA0003149086000BF3048006800F400300090FE
:101DB0000198401C0190009818B90198B0F5A06FE7
:101DC000F1D12948006800F4003010B101200090E2
:101DD00001E0002000900098012843D123480068CA
:101DE00040F01000214908600846006820F0030018
:101DF00008600846006840F0020008601A48406821
:101E0000194948600846406848600846406840F400
:101E1000806048600846406820F47C1048600846AE
:101E2000406840F4E81048600846006840F0807060
:101E3000086000BF0C48006800F000700028F9D06E
:101E40000948406820F00300074948600846406898
:101E500040F00200486000BF0348406800F00C00FA
:101E60000828F9D10CBD00000010024000200240FB
:101E7000042808D14FF0E021096941F004014FF036
:101E8000E022116107E04FF0E021096921F004012F
:101E90004FF0E0221161704770B5174800684FF4A9
:101EA0007A71B0FBF1F4E4082146B1F1807F00D3F0
:101EB0001DE021F07F40401E4FF0E022506150179E
:101EC0000022002807DA13071E0E0C4B00F00F0546
:101ED0002D1F5E5503E013071D0E094B1D5400BF57
:101EE00000204FF0E02290610720106100BF6FF0EA
:101EF0000400FFF7BDFF70BD0000002018ED00E0FA
:101F000000E400E00148006870470000380100204C
:101F100000B504480068401C0249086000F028FE33
:101F200000BD00003401002010B51348006840F0E7
:101F300001001149086008464068104908400E49F0
:101F40004860084600680E4908400B49086008468A
:101F5000006820F4802008600846406820F4FE00F5
:101F600048604FF41F008860FFF70EFF4FF00060DD
:101F70000449086010BD0000001002400000FFF896
:101F8000FFFFF6FE08ED00E04FF08040008A4FF0C2
:101F90008040008A20F001004FF0804108827047A5
:101FA00010B50121034800F039F90321014800F080
:101FB00032F810BD000800400EB501210420FFF7E3
:101FC000E7FD124800F036F86320ADF8040041F652
:101FD0001E40ADF800000020ADF80600ADF802008C
:101FE00069460A4800F050F90121084800F010F84D
:101FF00001221146054800F02CF90121034800F0A8
:102000000DF800210420FFF7C3FD0EBD00080040BD
:10201000CA4302827047CA430282704721B10288D4
:1020200042F00102028004E002884FF6FE731A407B
:102030000280704710B504466848844208D10121E7
:10204000C014FFF7D5FD0021E014FFF7D1FDC4E077
:10205000B4F1804F08D101210846FFF7A9FD002106
:102060000120FFF7A5FDB8E05D48844208D10121B9
:102070000220FFF79DFD00210220FFF799FDACE053
:102080005848844208D101210420FFF791FD002126
:102090000420FFF78DFDA0E05348844208D10121C0
:1020A0000820FFF785FD00210820FFF781FD94E05F
:1020B0004E48844208D101211020FFF779FD00210C
:1020C0001020FFF775FD88E04948844208D10121BE
:1020D0002020FFF76DFD00212020FFF769FD7CE047
:1020E0004448844208D101214014FFF781FD0021BA
:1020F0006014FFF77DFD70E03F48844209D1012163
:10210000C804FFF775FD00214FF40020FFF770FDB4
:1021100063E03A48844209D101210805FFF768FDD0
:1021200000214FF48010FFF763FD56E034488442ED
:1021300009D101214805FFF75BFD00214FF4001094
:10214000FFF756FD49E02F48844208D10121402085
:10215000FFF72EFD00214020FFF72AFD3DE02A4831
:10216000844208D101218020FFF722FD0021802038
:10217000FFF71EFD31E02548844208D1012180157A
:10218000FFF716FD0021A015FFF712FD25E02048FE
:10219000844209D101210804FFF72AFD00214FF4F0
:1021A0008030FFF725FD18E01A48844209D101214B
:1021B0004804FFF71DFD00214FF40030FFF718FD24
:1021C0000BE01548844208D101218804FFF710FD77
:1021D00000214FF48020FFF70BFD10BD002C0140C3
:1021E0000004004000080040000C004000100040C7
:1021F0000014004000340140004C014000500140F8
:102200000054014000180040001C00400020004025
:1022100000400140004401400048014030B5024602
:10222000002000230024158A05EA0103958905EAA8
:10223000010413B10CB1012000E0002030BD10B545
:10224000FFF7BAFE00F00EF801210420FFF7A0FC12
:1022500010BD1AB183890B43838102E083898B43CC
:102260008381704708B51E208DF8000001208DF88D
:10227000010003208DF8020001208DF8030068465C
:10228000FFF748FB08BD0000002202881D4B984262
:102290000ED01D4B98420BD0B0F1804F08D01B4B95
:1022A000984205D01A4B984202D01A4B984204D15A
:1022B0004FF68F731A404B881A43174B984207D03A
:1022C000164B984204D04FF6FF431A40CB881A436E
:1022D00002808B8883850B8803850A4B98420BD03C
:1022E000094B984208D00E4B984205D00D4B9842AE
:1022F00002D00D4B984201D10B7A038601238382D1
:1023000070470000002C01400034014000040040F0
:1023100000080040000C0040001000400014004085
:1023200000400140004401400048014010B54FF416
:1023300058711B4800F0C3F810B1194800F07AF941
:102340001748008800F08000F0B115480C30008874
:1023500000F08000C0B1134801780078401C114A99
:1023600010701148405C0E49091D08801046007825
:102370000E490978884207D109480C30008820F0BE
:10238000800007490C3108800548008800F02000D3
:1023900020B10348001D00880549087010BD0000E9
:1023A000003801403D0100207C0200203E01002059
:1023B0003C01002010B54FF458710B4800F064F850
:1023C000094800F037F90949094A12688854084950
:1023D0000968481CC11700EB5161C911A0EBC1117C
:1023E000034A116010BD0000004400407C0300203F
:1023F0004401002010B54FF458711F4800F05FF8F9
:1024000010B11D4800F016F91B48008800F4C07098
:10241000F0B119480C30008800F08000C0B11748B6
:1024200001780078401C154A10701548405C12492C
:10243000091D08801046007812490978884207D1A2
:102440000D480C30008820F080000B490C310880CA
:102450000948008800F0200060B140F2255106488C
:1024600000F012F80448001D0088C4B22046FFF7AF
:1024700093FA00BF10BD0000004800404801002052
:10248000FC0300204901002010B50022002340F683
:102490006A14A14200D100BF0A1201249440A3B2E1
:1024A000DC43048010BD21B1828942F40052828154
:1024B00004E082894DF6FF731A408281704770B53F
:1024C0000246002400230025002040F66A16B1428F
:1024D00000D100BFC1F3421501F01F03012606FA27
:1024E00003F3012D02D19689334006E0022D02D17B
:1024F000168A334001E0968A33400C12012606FA10
:1025000004F41688344013B10CB1012000E000201F
:1025100070BDF0B50346002400260025002040F6DB
:102520006A17B94200D100BF1846C1F3421401F046
:102530001F06012707FA06F5012C01D10C3004E033
:10254000022C01D1103000E014301AB107682F437B
:10255000076002E00768AF430760F0BD2DE9F04770
:1025600086B005460E460024A24600BFA1460027BD
:10257000B08900B100BF2F462C8A4CF6FF70044092
:10258000F08804432C82AC894EF6F3100440B088E6
:1025900031890843718908430443AC81AC8A4FF602
:1025A000FF400440B0890443AC8201A8FFF730FB30
:1025B0001F48874202D1DDF810A001E0DDF80CA031
:1025C000A88900F4004040B10AEBCA0000EB0A10F1
:1025D00031684900B0FBF1F807E00AEBCA0000EBF4
:1025E0000A1031688900B0FBF1F86420B8FBF0F004
:1025F00004012009642101FB1089A88900F400402E
:1026000040B1322000EBC900B0FBF1F000F0070050
:10261000044308E0322000EB09106421B0FBF1F024
:1026200000F00F0004432C8106B0BDE8F0870000E5
:102630000038014001468888C0F308007047000058
:1026400070B504460D4600200AE0225C0C490B7868
:102650000978491C0A4E31700A49CA54411CC8B253
:10266000A842F2DB0848008800F0800030B901225F
:1026700040F2277104480C38FFF74BFF70BD000093
:102680003E0100207C0200200C38014000BFFEE724
:10269000490050EAC12018BF04204A0D18BF40F07D
:1026A000010040F2FF72B2EB515F08BF40F0020040
:1026B000012808BF052070472DE9F0414F1E00EBAF
:1026C000C7010446D1E9000115461E4637F006024F
:1026D0000DD02A463346FDF7EDFD7F1E04EBC70300
:1026E000D3E90023FDF7D0FF37F00602F1D1022F26
:1026F00025D0042F13D0062F18BFBDE8F0812A463D
:102700003346FDF7D7FDD4E90A23FDF7BDFF2A467E
:102710003346FDF7CFFDD4E90823FDF7B5FF2A4680
:102720003346FDF7C7FDD4E90623FDF7ADFF2A4682
:102730003346FDF7BFFDD4E90423FDF7A5FF2A4684
:102740003346FDF7B7FDD4E90223FDF79DFF2A4686
:102750003346FDF7AFFDD4E90023BDE8F041FDF7B6
:1027600093BF0122FEF76BB8FDF78EBF024A00202F
:102770001107FEF764B8000001FDFFFF02E008C882
:10278000121F08C1002AFAD170477047002001E0EB
:1027900001C1121F002AFBD1704700002DE9F84F3C
:1027A00004460D4621F0004000917349814211DC3E
:1027B0007249884201DC06D12CB120462946BDE889
:1027C000F84FFFF7CEBF6E48002DCCBF6D496E4964
:1027D000BDE8F88F6D49814211DD6D498142D8BF56
:1027E0004FF0FF366DDD20462946FFF751FF0428E4
:1027F00008BFFFF7BBFF20462946BDE8F88F6549B3
:10280000654F25F00045814233DD6449814219DD81
:10281000002632464FF0804320462946FDF734FF1C
:1028200080468A46012220462946FEF708F8002203
:102830003B46FDF7CAFF42465346FDF7ADFD044651
:102840000D463EE001260022BA463B462046294678
:10285000FDF71AFF80460F460022534620462946C0
:10286000FDF7B3FF42463B46FDF796FD04460D4695
:1028700027E04B4981421BDDDFF828A10226002218
:10288000534620462946FDF715FD00223B46FDF73D
:10289000FBFE80460F460022534620462946FDF7A0
:1028A00094FF42463B46FDF777FD04460D4608E09F
:1028B000032622462B4600203B49FDF76DFD0446CA
:1028C0000D4622462B4610461946FDF7F3FC8B4673
:1028D000824602460B46FDF7EDFC074602463348AA
:1028E00088460B4606217844FFF7E6FE52465B46D3
:1028F000FDF7E0FC82462E488B463A4643460521CA
:102900007844FFF7D9FE3A464346FDF7D3FC02462A
:102910000B46002E504659460CDAFDF7B5FE22460E
:102920002B46FDF7C7FC01B022462B46BDE8F04F11
:10293000FDF74EBFFDF7A8FE22462B46FDF7BAFC79
:102940001C4A7A4402EBC603D3E90023FDF73DFF9E
:1029500022462B46FDF739FF174A7A4402EBC6039D
:10296000D3E90023FDF734FF009A002AB8BF81F0B5
:102970000041BDE8F88F0000000010440000F07F27
:10298000182D4454FB21F93FFB21F9BF0000DC3F27
:102990000000203E0000F33F0000F03F0000E63F53
:1029A000008003400000F83F0000F0BF9E030000DD
:1029B0005C030000FA020000C20200002DE9F04DA5
:1029C0009446CCF1000423F000464CEA0404524F34
:1029D00046EAD4749A46884621F00042BC4206D8A2
:1029E000454240EA050442EAD474BC4204D9BDE839
:1029F000F04D6246FFF7B8BEAAF14055A5F17F65DC
:102A000055EA0C040BD0022404EAAA74434DDFF803
:102A100010E144EAD87452EA000B04D00CE0BDE89F
:102A2000F04DFFF7BBBE002C14BF012CBDE8F08DAC
:102A3000022C30D0032C32D056EA0C0B0AD0BE4206
:102A400020D1BA4209D126F0804622F08042334696
:102A5000114617E000291ADB25E0DFF8C8B0FB4477
:102A6000002C04BFDBE90001BDE8F08D012C02BFA2
:102A7000DBE9000181F00041BDE8F08D022C0AD0B5
:102A8000032C0CD0BA4212D1B8F1000F0BDA234854
:102A90002549BDE8F08D28462449BDE8F08D28463B
:102AA0007146BDE8F08D1D482149BDE8F08D921BAF
:102AB00012153C2AC4BF19481D490EDCBAF1000F9B
:102AC000BEBF12F13C0F0020014606DB6246FDF757
:102AD00063FC21F00041FFF761FE002C08BFBDE858
:102AE000F08D012C04BF81F00041BDE8F08D114A4A
:102AF000114B022C07D0FDF768FE2A46BDE8F04DC9
:102B00000A4BFDF762BEFDF760FE2A46BDE8F04DB8
:102B1000064BFDF75DBE00000000F07F182D445409
:102B2000FB2109C056020000FB21F9BFFB2109402F
:102B3000FB21F93F075C143326A6A13C10B5FFF733
:102B4000ABF94FF4A060FEF71DFFFFF7F5F8FEF7B5
:102B500003FCFFF774FB024800F012F810BD000000
:102B600020A10700FFF7EAFF01E0FFF7BDF8FCE74F
:102B700002480068401C0149086070473801002085
:102B800010B586B00446012144F20400FFF720F896
:102B90004FF40070ADF8140003208DF816001820D3
:102BA0008DF8170005A91C48FDF71BFF4FF4806046
:102BB000ADF8140004208DF8170005A91648FDF79C
:102BC00010FF25208DF8000003208DF801008DF8FE
:102BD000020001208DF803006846FEF79BFE019479
:102BE0000020ADF80800ADF80A00ADF80C00ADF813
:102BF00010000C20ADF80E0001A90848FFF7AEFC4C
:102C0000012240F225510548FFF783FC01210348CA
:102C1000FFF749FC06B010BD000801400038014034
:102C20004FBB610567ACDD3F182D4454FB21E93FE4
:102C30009BF681D20B73EF3F182D4454FB21F93FD3
:102C4000E2652F227F2B7A3C075C143326A6813C59
:102C5000BDCBF07A8807703C075C143326A6913C04
:102C6000C4EB98999999C9BF711623FEC671BCBF70
:102C70006D9A74AFF2B0B3BF9AFDDE522DDEADBFD8
:102C80002F6C6A2C44B4A2BF0D5555555555D53FF0
:102C9000FF8300922449C23F6E204CC5CD45B73F0B
:102CA000513DD0A0660DB13FEB0D76244B7BA93F83
:102CB00011DA22E33AAD903F00000000000000006E
:102CC000E02C000800000020AC0100006C080008A7
:102CD000442D0008AC010020540700008C27000898
:102CE0001184A24A04680901020304060708090CBA
:102CF00069104502040608850AD7A33C30096F1203
:102D0000833AA69B443B1A3F1803293B01AB803F03
:102D10000C09A65401241331136408E8031A430C68
:102D20005AF46D1A370C72C81A330C72641A450CB7
:102D300072321A3F0C72141A350C720A1A410C7254
:042D4000020000008D
:04000005080000ED02
:00000001FF
